{
  "contractName": "UserAuth",
  "abi": [
    {
      "inputs": [],
      "stateMutability": "nonpayable",
      "type": "constructor"
    },
    {
      "anonymous": false,
      "inputs": [
        {
          "indexed": true,
          "internalType": "address",
          "name": "user",
          "type": "address"
        },
        {
          "indexed": false,
          "internalType": "bool",
          "name": "isFraudulent",
          "type": "bool"
        }
      ],
      "name": "FraudStatusUpdated",
      "type": "event"
    },
    {
      "anonymous": false,
      "inputs": [
        {
          "indexed": true,
          "internalType": "address",
          "name": "user",
          "type": "address"
        },
        {
          "indexed": false,
          "internalType": "string",
          "name": "username",
          "type": "string"
        },
        {
          "indexed": false,
          "internalType": "string",
          "name": "time",
          "type": "string"
        }
      ],
      "name": "UserLoggedIn",
      "type": "event"
    },
    {
      "anonymous": false,
      "inputs": [
        {
          "indexed": true,
          "internalType": "address",
          "name": "user",
          "type": "address"
        },
        {
          "indexed": false,
          "internalType": "string",
          "name": "username",
          "type": "string"
        }
      ],
      "name": "UserRegistered",
      "type": "event"
    },
    {
      "inputs": [],
      "name": "owner",
      "outputs": [
        {
          "internalType": "address",
          "name": "",
          "type": "address"
        }
      ],
      "stateMutability": "view",
      "type": "function",
      "constant": true
    },
    {
      "inputs": [
        {
          "internalType": "address",
          "name": "",
          "type": "address"
        }
      ],
      "name": "users",
      "outputs": [
        {
          "internalType": "bytes32",
          "name": "usernameHash",
          "type": "bytes32"
        },
        {
          "internalType": "bytes32",
          "name": "passwordHash",
          "type": "bytes32"
        },
        {
          "internalType": "bool",
          "name": "exists",
          "type": "bool"
        },
        {
          "internalType": "bool",
          "name": "isFraudulent",
          "type": "bool"
        }
      ],
      "stateMutability": "view",
      "type": "function",
      "constant": true
    },
    {
      "inputs": [
        {
          "internalType": "string",
          "name": "username",
          "type": "string"
        },
        {
          "internalType": "string",
          "name": "password",
          "type": "string"
        }
      ],
      "name": "register",
      "outputs": [],
      "stateMutability": "nonpayable",
      "type": "function"
    },
    {
      "inputs": [
        {
          "internalType": "string",
          "name": "username",
          "type": "string"
        },
        {
          "internalType": "string",
          "name": "password",
          "type": "string"
        },
        {
          "internalType": "string",
          "name": "time",
          "type": "string"
        }
      ],
      "name": "login",
      "outputs": [
        {
          "internalType": "bool",
          "name": "",
          "type": "bool"
        }
      ],
      "stateMutability": "nonpayable",
      "type": "function"
    },
    {
      "inputs": [
        {
          "internalType": "address",
          "name": "userAddress",
          "type": "address"
        },
        {
          "internalType": "bool",
          "name": "isFraud",
          "type": "bool"
        }
      ],
      "name": "updateFraudStatus",
      "outputs": [],
      "stateMutability": "nonpayable",
      "type": "function"
    },
    {
      "inputs": [
        {
          "internalType": "address",
          "name": "userAddress",
          "type": "address"
        }
      ],
      "name": "isUserFraudulent",
      "outputs": [
        {
          "internalType": "bool",
          "name": "",
          "type": "bool"
        }
      ],
      "stateMutability": "view",
      "type": "function",
      "constant": true
    }
  ],
  "bytecode": "0x608060405234801561001057600080fd5b50600180546001600160a01b03191633179055610802806100326000396000f3fe608060405234801561001057600080fd5b50600436106100625760003560e01c80633f627f5a146100675780633ffbd47f1461007c5780635721bb7d1461008f5780638da5cb5b146100d8578063a87430ba14610103578063ce63176614610166575b600080fd5b61007a610075366004610539565b610179565b005b61007a61008a366004610618565b6102b1565b6100c361009d36600461067c565b6001600160a01b0316600090815260208190526040902060020154610100900460ff1690565b60405190151581526020015b60405180910390f35b6001546100eb906001600160a01b031681565b6040516001600160a01b0390911681526020016100cf565b61013e61011136600461067c565b60006020819052908152604090208054600182015460029092015490919060ff8082169161010090041684565b60408051948552602085019390935290151591830191909152151560608201526080016100cf565b6100c3610174366004610697565b6103f3565b6001546001600160a01b031633146101e25760405162461bcd60e51b815260206004820152602160248201527f4f6e6c79206f776e65722063616e2063616c6c20746869732066756e6374696f6044820152603760f91b60648201526084015b60405180910390fd5b6001600160a01b03821660009081526020819052604090206002015460ff166102435760405162461bcd60e51b8152602060048201526013602482015272155cd95c88191bd95cc81b9bdd08195e1a5cdd606a1b60448201526064016101d9565b6001600160a01b0382166000818152602081905260409081902060020180548415156101000261ff0019909116179055517fa1527764a912d217ae4421a2539cc3fd2ed0b4f46777025d48c0c348f44dbc78906102a590841515815260200190565b60405180910390a25050565b3360009081526020819052604090206002015460ff161561030a5760405162461bcd60e51b81526020600482015260136024820152725573657220616c72656164792065786973747360681b60448201526064016101d9565b6040805160808101909152806103238460a08301610743565b6040516020818303038152906040528051906020012081526020018260405160200161034f9190610743565b60408051601f1981840301815291815281516020928301208352600183830181905260009382018490523380855284845293829020855181559285015190830155838101516002909201805460609095015115156101000261ff00199315159390931661ffff19909516949094179190911790925590517f48cac28ad4dc618e15f4c2dd5e97751182f166de97b25618318b2112aa951a2f906102a590859061078b565b336000908152602081815260408083208151608081018352815481526001820154938101939093526002015460ff80821615159284018390526101009091041615156060830152610448576000915050610516565b80606001511561045c576000915050610516565b8460405160200161046d9190610743565b6040516020818303038152906040528051906020012081600001511480156104be5750836040516020016104a19190610743565b604051602081830303815290604052805190602001208160200151145b1561051057336001600160a01b03167f45c334df23ad10b1b9b41c10cd46dc0fa0aeea6a37c1c4edb0c0d49c8879777a86856040516104fe92919061079e565b60405180910390a26001915050610516565b60009150505b9392505050565b80356001600160a01b038116811461053457600080fd5b919050565b6000806040838503121561054c57600080fd5b6105558361051d565b91506020830135801515811461056a57600080fd5b809150509250929050565b634e487b7160e01b600052604160045260246000fd5b600082601f83011261059c57600080fd5b813567ffffffffffffffff808211156105b7576105b7610575565b604051601f8301601f19908116603f011681019082821181831017156105df576105df610575565b816040528381528660208588010111156105f857600080fd5b836020870160208301376000602085830101528094505050505092915050565b6000806040838503121561062b57600080fd5b823567ffffffffffffffff8082111561064357600080fd5b61064f8683870161058b565b9350602085013591508082111561066557600080fd5b506106728582860161058b565b9150509250929050565b60006020828403121561068e57600080fd5b6105168261051d565b6000806000606084860312156106ac57600080fd5b833567ffffffffffffffff808211156106c457600080fd5b6106d08783880161058b565b945060208601359150808211156106e657600080fd5b6106f28783880161058b565b9350604086013591508082111561070857600080fd5b506107158682870161058b565b9150509250925092565b60005b8381101561073a578181015183820152602001610722565b50506000910152565b6000825161075581846020870161071f565b9190910192915050565b6000815180845261077781602086016020860161071f565b601f01601f19169290920160200192915050565b602081526000610516602083018461075f565b6040815260006107b1604083018561075f565b82810360208401526107c3818561075f565b9594505050505056fea26469706673582212206e80bd3276aaaf91e0b1b94b34865e05119ff010eb04a65669a255cd186c85f164736f6c63430008130033",
  "immutableReferences": {},
  "source": "pragma solidity ^0.8.0;\r\n\r\ncontract UserAuth {\r\n    struct User {\r\n        bytes32 usernameHash;\r\n        bytes32 passwordHash;\r\n        bool exists;\r\n        bool isFraudulent;\r\n    }\r\n\r\n    mapping(address => User) public users;\r\n    address public owner;\r\n\r\n    event UserRegistered(address indexed user, string username);\r\n    event UserLoggedIn(address indexed user, string username, string time);\r\n    event FraudStatusUpdated(address indexed user, bool isFraudulent);\r\n\r\n    constructor() {\r\n        owner = msg.sender;\r\n    }\r\n\r\n    modifier onlyOwner() {\r\n        require(msg.sender == owner, \"Only owner can call this function\");\r\n        _;\r\n    }\r\n\r\n    function register(string memory username, string memory password) public {\r\n        require(!users[msg.sender].exists, \"User already exists\");\r\n        users[msg.sender] = User(\r\n            keccak256(abi.encodePacked(username)),\r\n            keccak256(abi.encodePacked(password)),\r\n            true,\r\n            false\r\n        );\r\n        emit UserRegistered(msg.sender, username);\r\n    }\r\n\r\n    function login(string memory username, string memory password, string memory time) public returns (bool) {\r\n        User memory user = users[msg.sender];\r\n        if (!user.exists) return false;\r\n        if (user.isFraudulent) return false;\r\n        if (\r\n            user.usernameHash == keccak256(abi.encodePacked(username)) &&\r\n            user.passwordHash == keccak256(abi.encodePacked(password))\r\n        ) {\r\n            emit UserLoggedIn(msg.sender, username, time);\r\n            return true;\r\n        }\r\n        return false;\r\n    }\r\n\r\n    function updateFraudStatus(address userAddress, bool isFraud) public onlyOwner {\r\n        require(users[userAddress].exists, \"User does not exist\");\r\n        users[userAddress].isFraudulent = isFraud;\r\n        emit FraudStatusUpdated(userAddress, isFraud);\r\n    }\r\n\r\n    function isUserFraudulent(address userAddress) public view returns (bool) {\r\n        return users[userAddress].isFraudulent;\r\n    }\r\n}",
  "sourcePath": "C:\\do\\fraud-detection-dapp\\contracts\\UserAuth.sol",
  "compiler": {
    "name": "solc",
    "version": "0.8.19+commit.7dd6d404.Emscripten.clang"
  },
  "schemaVersion": "3.4.16",
  "updatedAt": "2025-06-29T07:38:44.382Z",
  "networkType": "ethereum",
  "devdoc": {
    "kind": "dev",
    "methods": {},
    "version": 1
  },
  "userdoc": {
    "kind": "user",
    "methods": {},
    "version": 1
  }
}